:020000040800F2
:10000000F815032459040008494900081F4700084F
:1000100045490008D50B0008895C00080000000075
:100020000000000000000000000000009503000830
:10003000D90B000800000000F1030008154C00086F
:100040007F0400087F0400087F0400087F04000884
:100050007F0400087F0400087F0400087F04000874
:100060007F0400087F0400087F0400087F04000864
:100070007F0400087F0400087F0400087F04000854
:100080007F0400087F0400087F0400087F04000844
:100090007F0400087F0400087F0400087F04000834
:1000A0007F0400087F0400087F0400087F04000824
:1000B0007F0400087F0400087F0400087F04000814
:1000C0007F0400087F0400087F0400087F04000804
:1000D0007F040008795C00087F0400087F040008A2
:1000E0007F0400087F040008000000007F0400086F
:1000F0007F0400087F0400087F0400087F040008D4
:100100007F0400087F0400087F0400087F040008C3
:100110007F0400087F0400087F0400087F040008B3
:100120007F0400087F0400087F0400087F040008A3
:100130007F0400087F0400087F0400087F04000893
:1001400000000000000000000000000000000000AF
:100150007F0400087F0400087F0400087F04000873
:100160007F0400087F0400087F0400087F04000863
:100170007F0400087F0400087F04000800000000DE
:100180007F0400087F0400087F0400087F04000843
:100190007F0400087F0400087F0400087F04000833
:1001A000254700087F0400087F0400087F0400083A
:1001B0007F0400087F0400087F0400087F04000813
:1001C0007F0400087F0400087F0400087F04000803
:1001D0007F0400087F0400087F0400087F040008F3
:1001E0007F0400087F0400087F0400087F040008E3
:1001F0007F0400087F0400087F0400087F040008D3
:100200007F0400087F0400087F0400087F040008C2
:100210007F0400087F0400087F0400087F040008B2
:100220007F0400087F0400087F040008000000002D
:100230007F0400087F040008000000007F0400081D
:100240007F0400087F0400087F0400087F04000882
:100250007F0400087F0400087F0400087F04000872
:100260007F0400087F0400087F0400087F04000862
:100270007F0400087F0400087F04000800000000DD
:100280007F0400087F0400087F04000800000000CD
:10029000000000007F04000800F002F800F06AF897
:1002A0000AA090E8000C82448344AAF10107DA45D1
:1002B00001D100F05FF8AFF2090EBAE80F0013F0B9
:1002C000010F18BFFB1A43F001031847C0D0070005
:1002D000E0D007000A444FF0000C10F8013B13F087
:1002E000070408BF10F8014B1D1108BF10F8015B8F
:1002F000641E05D010F8016B641E01F8016BF9D182
:1003000013F0080F1EBF10F8014BAD1C0C1B09D1D8
:100310006D1E58BF01F801CBFAD505E014F8016B4A
:1003200001F8016B6D1EF9D59142D6D370470000DC
:100330000023002400250026103A28BF78C1FBD8EE
:10034000520728BF30C148BF0B607047642900F0D6
:10035000AF81752900F0AC81782900F0E58173291F
:1003600000F0D383002070471FB54DF05AFA1FBD2F
:1003700010B510BD00F0FCFB1146FFF7F5FF39F09A
:10038000C1F900F01AFC03B4FFF7F2FF03BC05F05B
:100390004CFE00002D4B19680868B0E8F04F80F360
:1003A0000988BFF36F8F4FF0000080F3118870470A
:1003B0000000000008480068006880F308884FF0DB
:1003C000000080F3148862B661B6BFF34F8FBFF3AD
:1003D0006F8F00DF00BF00BF08ED00E0DFF80C000A
:1003E000016841F470010160704700BF88ED00E0D2
:1003F000EFF30980BFF36F8F144B1A681EF0100FD4
:1004000008BF20ED108A20E9F04F106009B44FF0CA
:10041000500072B680F31188BFF34F8FBFF36F8F18
:1004200062B64BF06FFE4FF0000080F3118809BCFC
:1004300019680868B0E8F04F1EF0100F08BFB0EC64
:10044000108A80F30988BFF36F8F7047740000240F
:10045000EFF3058070470000DFF83000016841F4D9
:10046000700101600A4880470A480047FEE7FEE73E
:10047000FEE7FEE7FEE7FEE7FEE7FEE7FEE7FEE754
:1004800005480649044A064B7047000088ED00E025
:10049000294C000899020008F80D0324F8150324DC
:1004A000F80D0324704753EA020C00F069802DE92F
:1004B000F04B4FF00006002B1FBFB3FA83F503FA91
:1004C00005F424FA05F65E4012BF1643B2FA82F52F
:1004D00002FA05F4C5F120051EBF22FA05FC44EA24
:1004E0000C04203556EA044C4FEA144418BF641C2F
:1004F0004FF000084FF00009904271EB030C39D324
:10050000002919BFB1FA81F701FA07F6B0FA80F7AE
:1005100000FA07F6C7F120071EBF20FA07FC46EADB
:100520000C062037B6FBF4FCA7EB0507103F07F0DD
:100530001F0BCBF120060CFA0BFB2CFA06F644BF7E
:10054000B3460026202FA4BF5E464FF0000B5BEAA7
:10055000060C08BF4FF0010B19EB0B09ABFB027C3B
:1005600048EB0608C01B06FB02CC0BFB03CC71EB6F
:100570000C01C1E70B46024641464846BDE8F08BF8
:1005800013B54FF000004FF00001AFF30080BDE85D
:100590001C40704710B54C1084EA530404D5404207
:1005A000C1F1000138BF491E1B4204D55242C3F1BC
:1005B000000338BF5B1EFFF776FF14F0804F04D0B6
:1005C0004042C1F1000138BF491E14F0004F04D071
:1005D0005242C3F1000338BF5B1E10BD0FB4044983
:1005E00010B503AA029800F095FA10BC5DF814FB50
:1005F000500000242DE9F0410E4604460020206200
:100600002046E168884730B3252805D0D4E9012188
:100610009047206A401CF2E7E1682046002788479F
:10062000050018D0A5F14100192802D820354FF453
:1006300000673246294620462760FFF787FE40B113
:10064000012804D0F61D26F007060836D8E7361D27
:10065000D6E72846DAE7206ABDE8F08170B50C4697
:100660000546012A05D02878800600D5EA690023CE
:1006700002E0012305E05B1C934202D2E05C00280B
:10068000F9D1A869E618C01AA861286A1844286236
:100690002846AFF3008004E0D5E9012114F8010BEE
:1006A0009047B442F8D32846AFF3008070BD0000F5
:1006B0002DE9F0410646002410687529314616A53B
:1006C00010D0AFF30080002802DA404213A507E003
:1006D00031688A0701D512A502E0490704D511A5A2
:1006E000012401E0AFF3008000210A2206F1240773
:1006F00009E0B0FBF2FCB0FBF2F302FB1C0030306F
:1007000078541846491C0028F3D123462A4630461F
:10071000BDE8F04100F08EB9000000002D0000009F
:100720002B0000002000000070B504460D46214655
:100730001068AFF300802188090502D50F4A7A447A
:1007400002E00E4A7A440E32002104F1240305E04F
:1007500000F00F060009965D5E54491C0028F7D191
:1007600020780023000704D5702D02D009B10223A0
:1007700011322046BDE8704000F05CB9A8C3070004
:10078000401ECAB210F8011F8A4202D00029F9D1D6
:100790000020704740EA010310B59B070FD1042ADF
:1007A0000DD310C808C9121F9C42F8D020BA19BA3C
:1007B000884201D9012010BD4FF0FF3010BD1AB1A1
:1007C000D30703D0521C07E0002010BD10F8013BF6
:1007D00011F8014B1B1B07D110F8013B11F8014B1D
:1007E0001B1B01D1921EF1D1184610BD40EA010336
:1007F000024630B59B0710D14FF0013400E008C22B
:1008000008C91D1B9D4315EAC41FF8D013F0FF0152
:1008100002F8011B0DD01B0AF8E711F8013B002B71
:1008200002F8013B05D011F8013B002B02F8013B17
:10083000F3D130BD032A40F2308010F0030C00F0F9
:10084000158011F8013BBCF1020F624498BF11F80A
:1008500001CB00F8013B38BF11F8013BA2F10402C3
:1008600098BF00F801CB38BF00F8013B11F003033B
:1008700000F02580083AC0F0088051F8043B083A9F
:1008800051F804CBA0E80810F5E7121D5CBF51F841
:10089000043B40F8043BAFF30080D20724BF11F8BB
:1008A000013B11F801CB48BF11F8012B24BF00F820
:1008B000013B00F801CB48BF00F8012B704710B591
:1008C000203AC0F00B80B1E81850203AA0E8185048
:1008D000B1E81850A0E81850BFF4F5AF5FEA027C09
:1008E00024BFB1E81850A0E8185044BF18C918C078
:1008F000BDE810405FEA827C24BF51F8043B40F819
:10090000043B08BF7047D20728BF31F8023B48BFFD
:1009100011F8012B28BF20F8023B48BF00F8012B3B
:10092000704702F0FF0343EA032242EA024200F06A
:1009300002B84FF000020429C0F0128010F0030C3E
:1009400000F01B80CCF1040CBCF1020F18BF00F8C2
:10095000012BA8BF20F8022BA1EB0C0100F00DB871
:100960005FEAC17C24BF00F8012B00F8012B48BFCF
:1009700000F8012B70474FF0000200B51346944673
:100980009646203922BFA0E80C50A0E80C50B1F1E7
:100990002001BFF4F7AF090728BFA0E80C5048BFFB
:1009A0000CC05DF804EB890028BF40F8042B08BF99
:1009B000704748BF20F8022B11F0804F18BF00F895
:1009C000012B70474FF0013C50F8042B51F8043BC9
:1009D0009A4215D1A2EB0C03934313EACC130BD12B
:1009E00050F8042B51F8043B9A4209D1A2EB0C03B6
:1009F000934313EACC13E7D04FF00000704700BFD9
:100A0000D01A01BAB1FA81F101F0180122FA01F00D
:100A1000CB40C1F12001DBB2C0B2C01A2CFA01F305
:100A2000D11A914311EAC311E6D17047704770475C
:100A3000704770472DE9F0470D46994692460446A7
:100A400000F124080168880604D5E06921F010014E
:100A5000216000E00120A84201DD471B00E00027E3
:100A6000A1697A1902EB0900081AA0612078C00672
:100A700002D42046AFF30080002608E0D4E901212B
:100A80001AF806009047206A401C761C20624E45EA
:100A9000F4DB2078C0060AD52046AFF3008006E0DC
:100AA000D4E9012130209047206A401C2062381E82
:100AB000A7F10107F4DC07E0D4E9012118F80500EB
:100AC0009047206A401C2062281EA5F10105F3DC36
:100AD0002046AFF300802078000602D50220BDE852
:100AE000F0870120FBE710B5436913B1AFF3008035
:100AF00001E0FFF7B3FD012010BD127800F12401E1
:100B00000A7000224A700122EDE711684FF0FF32AF
:100B1000E9E70000074B70B50D467B4400F011F883
:100B20000446284600F020F810B14FF0FF3070BDA9
:100B3000204670BD1F3A010001694A1C0261087815
:100B4000704700B58FB0CDE901310021059105490D
:100B50007944CDE9031011466846FFF74BFD0FB00D
:100B600000BD0000E5FFFFFF007B00F08000704744
:100B7000754600F02BF8AE4605006946534620F056
:100B80000700854618B020B5FFF77AFCBDE8204085
:100B90004FF000064FF000074FF000084FF0000B39
:100BA00021F00701AC46ACE8C009ACE8C009ACE8EC
:100BB000C009ACE8C0098D46704710B50446AFF3D4
:100BC00000802046BDE81040FFF7DDBB00487047BD
:100BD000940D032400BFFEE7704710B50346D1E92A
:100BE000000440EA04200C8940EA04400C7B40EAFF
:100BF0000460DC68D860002010BD10B50346D1E960
:100C0000000440EA04200C8940EA04400C7B40EADE
:100C100004609C689860002010BD000010B502467A
:100C2000486840F008008B681843CB6818430B698C
:100C300018434B6940EA43208B6940EA433013680C
:100C4000024C234018431060002010BD8901F0FFC2
:100C500002460868B0B9D1E901031843CB681843CC
:100C60000B6918434B6918438B691843CB691843C8
:100C70000B6A18434B6A184313686FF30E0318434B
:100C8000106019E0D1E9070318434B6A1843136851
:100C900023F4F84318431060D1E901031843CB68EB
:100CA00018430B6918434B6918438B691843536801
:100CB0006FF30E03184350600020704702465069DE
:100CC00043F6FE73984340EA4100506100207047AC
:100CD00010B50346D1E9000420438C68641E40EA45
:100CE0004410CC6840EA44201C696FF3150420438B
:100CF0001861002010BD000030B50346FAB908683D
:100D0000401E4C68641E40EA04148868401E44EA91
:100D10000024C868401E44EA0034088A401E44EAA1
:100D20000044888A401E44EA0054087E401E44EA7B
:100D300000609C6804F070442043986022E0C8681A
:100D4000401E0403888A401E44EA00509C680E4DF1
:100D50002C40204398600868401E4C68641E40EA9E
:100D600004148868401E44EA0024088A401E44EAAD
:100D70000044087E401E44EA0060DC6804F07044D1
:100D80002043D860002030BDFF0F0FFF2DE9F04158
:100D9000044600F05BFD804614B90120BDE8F081F7
:100DA00094F83500022808D08020606500BF00203C
:100DB00084F8340000BF0120F0E7FE492068884233
:100DC00049D0FC4918312068884244D0F949303173
:100DD000206888423FD0F7494831206888423AD09D
:100DE000F44960312068884235D0F2497831206872
:100DF000884230D0EF499031206888422BD0ED49AD
:100E0000A8312068884226D0EB492068884222D049
:100E1000E9491831206888421DD0E74930312068FF
:100E2000884218D0E44948312068884213D0E2490A
:100E30006031206888420ED0DF49783120688842CE
:100E400009D0DD4990312068884204D0DA49A831C0
:100E50002068884201D1012000E0002068B12068AC
:100E6000006820F01E00216808602068406920F0BA
:100E7000800021684861256806E02068006820F04D
:100E80000E00216808602568CA492068884270D031
:100E9000C8491831206888426BD0C6493031206873
:100EA000884266D0C34948312068884261D0C14930
:100EB0006031206888425CD0BE4978312068884221
:100EC00057D0BC4990312068884252D0B949A831E6
:100ED000206888424DD0B8492068884249D0B64938
:100EE00018312068884244D0B349303120688842A4
:100EF0003FD0B1494831206888423AD0AE4960318C
:100F00002068884235D0AC4978312068884230D09A
:100F1000A9499031206888422BD0A749A831206880
:100F2000884226D0A5492068884222D0A34914319E
:100F3000206888421DD0A14928312068884218D0F5
:100F40009E493C312068884213D09C49503120682A
:100F500088420ED0994964312068884209D0974967
:100F600078312068884204D094498C3120688842C6
:100F700001D1012000E0002028B1206E006820F49B
:100F80008070216E08608B492068884249D0894969
:100F900018312068884244D0864930312068884220
:100FA0003FD084494831206888423AD08149603135
:100FB0002068884235D07F4978312068884230D017
:100FC0007C499031206888422BD07A49A83120682A
:100FD000884226D078492068884222D07649183144
:100FE000206888421DD0744930312068884218D06A
:100FF000714948312068884213D06F4960312068B8
:1010000088420ED06C4978312068884209D06A49FC
:1010100090312068884204D06749A831206888420E
:1010200006D12068006820F001002168086005E012
:101030002068006820F001002168086011E000F0DD
:1010400005FCA0EB080005280BD9202060650320D3
:1010500084F8350000BF002084F8340000BF012070
:101060009CE6286800F001000028E8D1514920687A
:10107000884249D04F4918312068884244D04D49B0
:101080003031206888423FD04A4948312068884240
:101090003AD0484960312068884235D04549783196
:1010A0002068884230D043499031206888422BD054
:1010B0004049A8312068884226D03F4920688842AC
:1010C00022D03D491831206888421DD03A4930313C
:1010D0002068884218D0384948312068884213D0A7
:1010E00035496031206888420ED033497831206814
:1010F000884209D0304990312068884204D02E4976
:10110000A8312068884201D1012000E0002040B1D0
:10111000A66D94F85C0000F01F013F208840B0608D
:1011200007E0A76D94F85C0000F01F0101208840E3
:10113000786020492068884276D01E49183120689E
:10114000884271D01B493031206888426CD01949DF
:1011500048312068884267D016496031206888424B
:1011600062D014497831206888425DD011499031AD
:101170002068884258D00F49A8312068884253D04F
:101180000D49206888424FD00B49183120688842A9
:101190004AD0094930312068884245D00649483153
:1011A0002068884240D004496031206888423BD0A2
:1011B000014905E0100002401004024008540258A2
:1011C0007831206888422FD02549206888422BD06A
:1011D000234918312068884226D022492068884255
:1011E00022D020491431206888421DD01D49283161
:1011F0002068884218D01B493C312068884213D0AF
:1012000018495031206888420ED016496431206850
:10121000884209D0134978312068884204D01149A6
:101220008C312068884201D1012000E0002068B1A3
:10123000D4E919104860E06E40B1E06E006820F417
:101240008070E16E0860D4E91C104860012084F8C9
:10125000350000BF002084F8340000BF00BF9DE5CA
:10126000A00402400854025870B504460CB901208D
:1012700070BD94F83500022803D0802060650120FD
:10128000F6E7DC492068884249D0DA4918312068FD
:10129000884244D0D7493031206888423FD0D54970
:1012A0004831206888423AD0D2496031206888426B
:1012B00035D0D04978312068884230D0CD4990313E
:1012C000206888422BD0CB49A8312068884226D09C
:1012D000C9492068884222D0C7491831206888420D
:1012E0001DD0C54930312068884218D0C2494831E4
:1012F0002068884213D0C0496031206888420ED0EF
:10130000BD4978312068884209D0BB4990312068B6
:10131000884204D0B849A8312068884201D1012010
:1013200000E00020F0B3042084F83500B1492068C3
:1013300088424BD0AF4918312068884246D0AD4929
:1013400030312068884241D0AA494831206888421B
:101350003CD0A84960312068884237D0A54978310F
:101360002068884232D0A3499031206888422DD02D
:10137000A049A8312068884228D09F492068884227
:1013800024D09D491831206888421FD09A493031B5
:10139000206888421AD0984948312068884215D080
:1013A000954900E020E06031206888420ED09249E3
:1013B00078312068884209D08F499031206888426E
:1013C00004D08D49A8312068884206D12068006881
:1013D00020F001002168086009E12068006820F021
:1013E00001002168086002E12068006820F00E001A
:1013F000216808607F492068884249D07D491831BA
:101400002068884244D07B493031206888423FD0F0
:1014100078494831206888423AD07649603120685E
:10142000884235D0734978312068884230D071497C
:101430009031206888422BD06E49A83120688842BC
:1014400026D06D492068884222D06B491831206827
:1014500088421DD0684930312068884218D06649DA
:1014600048312068884213D063496031206888423F
:101470000ED0614978312068884209D05E499031A8
:101480002068884204D05C49A8312068884206D18F
:101490002068006820F001002168086005E02068ED
:1014A000006820F0010021680860524920688842E5
:1014B00070D050491831206888426BD04D49303186
:1014C0002068884266D04B4948312068884261D004
:1014D00048496031206888425CD0464978312068AC
:1014E000884257D0434990312068884252D04149C0
:1014F000A831206888424DD03F492068884249D0B1
:101500003D4918312068884244D03B493031206839
:1015100088423FD038494831206888423AD036491D
:1015200060312068884235D033497831206888425C
:1015300030D031499031206888422BD02E49A831D3
:101540002068884226D02D492068884222D02B4925
:101550001431206888421DD02849283120688842EB
:1015600018D026493C312068884213D02349503195
:10157000206888420ED0214964312068884209D011
:101580001E4978312068884204D01C498C3120687B
:10159000884201D1012000E00020D8B1206E00680F
:1015A00020F48070216E0860A56D94F85C0000F056
:1015B0001F01012088406860D4E919104860E06E7E
:1015C00040B1E06E006820F48070E16E0860D4E9FC
:1015D0001C104860012084F8350000BF002084F80A
:1015E000340000BF206D10B12046216D88470020D7
:1015F0003EE6000010000240100402400854025869
:101600000348006840F0010001490860704700008D
:1016100020040058F8B502460B4600216F4DD7E074
:1016200001278F401E6806EA0704002C72D01E793D
:1016300006F00306012E04D01E7906F00306022EE2
:1016400013D190684F000326BE40B0434F00DE68C0
:10165000BE4030439060506801268E40B0431E79F2
:10166000C6F300168E40304350601E7906F0030624
:10167000032E09D0D0684F000326BE40B0434F0070
:101680009E68BE403043D0601E7906F00306022EED
:1016900013D1CF0802F1200656F827004E07F70EA7
:1016A0000F26BE40B0434F07FF0E1E69BE403043B9
:1016B000CF0802F1200646F8270010684F000326E5
:1016C000BE40B0431E7906F003064F00BE403043D3
:1016D00010605E6806F44036002E78D000BF404EA1
:1016E000366846F002063E4F3E603E46366806F0DB
:1016F0000206009600BF00BF3A4E8F0856F827003A
:101700008E07370F0F26BE40B043374EB24202D18C
:1017100000262EE05BE0354EB24201D1012628E0E2
:10172000334EB24201D1022623E0324EB24201D101
:1017300003261EE0304EB24201D1042619E02F4E9E
:10174000B24201D1052614E02D4EB24201D1062647
:101750000FE02C4EB24201D107260AE02A4EB242D7
:1017600001D1082605E0294EB24201D1092600E048
:101770000A268F073F0FBE4030431A4E8F0846F8A7
:1017800027004FF0B0463068A0435E6806F480162C
:1017900006B120434FF0B04630607068A0435E68E9
:1017A00006F4001606B120434FF0B046706068683A
:1017B000A0435E6806F4003606B1204368602868DE
:1017C000A0435E6806F4803606B120432860491CB9
:1017D0001E68CE40002E7FF423AFF8BD8000005875
:1017E000F44402580804005800000258000402584B
:1017F00000080258000C0258001002580014025849
:1018000000180258001C02580020025800240258F8
:10181000024613690B400BB1012000E00020704725
:1018200010B5426921EA020302EA010443EA0443D3
:10183000836110BD0AB1816101E00B0483617047CF
:1018400001480068000C70470010005C0148006807
:1018500070470000580000240348006803490978D5
:1018600008440149086070475800002460000024C3
:1018700010B5052000F0E8FB01F0D2FD1049096821
:10188000C1F303210F4A515C01F01F0120FA01F45A
:101890000B48006800F00F001146085C00F01F00C4
:1018A00024FA00F008490860084804600F2000F09E
:1018B0000FF808B1012010BD00F0D0FA0020FAE7BF
:1018C000184402582CD8040848000024440000247E
:1018D00070B504461148007808B9012070BD0F4862
:1018E00000784FF47A71B1FBF0F00D490968B1FB53
:1018F000F0F5284602F0A2FB08B10120EEE7102C1B
:1019000007D200222146501E00F060FB054804600B
:1019100001E00120E2E70020E0E700006000002491
:10192000440000245C00002470B504460E461546B1
:1019300000BF94F8A000012801D1022070BD012051
:1019400084F8A00000BF022084F8A10005EB850107
:1019500001EBC50204F1380101EB8200342231466B
:10196000FEF7ADFF2A463146204602F0E3FE012095
:101970002168486284F8A10000BF002084F8A0001C
:1019800000BF00BFDAE7704770B504462068856B7A
:101990002068466B05F00400E0B106F00400C8B111
:1019A0002068406B20F0040021684863042021680F
:1019B000C863D4F8A40040F00100C4F8A4000420D7
:1019C00084F8A10000BF002084F8A00000BF2046DA
:1019D000FFF7D9FF05F00200E0B106F00200C8B140
:1019E0002068406B20F002002168486302202168D3
:1019F000C863D4F8A40040F00200C4F8A400042096
:101A000084F8A10000BF002084F8A00000BF204699
:101A1000FFF7B9FF05F00100A8B106F0010090B191
:101A20002068406B20F00100216848630120216894
:101A3000C86384F8A10000BF002084F8A00000BFA4
:101A4000204600F0A7F805F00800B0B106F0080045
:101A500098B12068406B20F0080021684863082096
:101A60002168C863012084F8A10000BF002084F829
:101A7000A00000BF204600F059F970BD70B50446C3
:101A80000CB9012070BD94F8A10028B9002084F899
:101A9000A000204600F080F8022084F8A100206811
:101AA000806920F0704021688861D4E90101084311
:101AB000E16808432169084321688969084321686E
:101AC0008861206880683249084021688860A08A5F
:101AD000050420688068A16929430843216888605B
:101AE0002068C0682A4908402168C860A08B0504A6
:101AF0002068C068216A294308432168C8602068BB
:101B000000692349084021680861A08C0504206809
:101B10000069A16A29430843216808612068406977
:101B20001B49084021684861A08D05042068406970
:101B3000216B294308432168486194F83500050268
:101B400094F8360006042068C06A00F07F402168DF
:101B5000C86246EA050094F8341008432168C96A4F
:101B600008432168C8622068406B40F00600216885
:101B700048632068806940F0010021688861002086
:101B8000C4F8A400012084F8A10000207AE7000036
:101B900000F800F07047000010B586B0044600BFA2
:101BA0004B48006840F00800494908600846006852
:101BB00000F00800009000BF00BF00BF444810388C
:101BC000006840F01000424910390860084600687B
:101BD00000F01000009000BF00BF00BF3C48001F95
:101BE000006840F002003A49091F08600846006892
:101BF00000F00200009000BF00BF00BF0846006870
:101C000040F0200008600846006800F020000090C6
:101C100000BF00BF00BF0846006840F040000860F9
:101C20000846006800F04000009000BF00BF00BF01
:101C30000846006840F0800008600846006800F030
:101C40008000009000BF00BF00BF0846006840F45D
:101C5000807008600846006800F48070009000BF43
:101C600000BF2020019001200290039003200490E7
:101C700001A91848FFF7CEFC022002900020039033
:101C80000E2005904FF48060019001A91248FFF7E3
:101C9000C1FC4FF40C60019001A91048FFF7BAFC99
:101CA0004FF47E40019001A90D48FFF7B3FC40F2CC
:101CB000F760019001A90B48FFF7ACFC0022052159
:101CC000582000F083F9582000F06CF906B010BDE0
:101CD000E444025800040258001402580018025844
:101CE000001C025800200258024600BF92F8A000D3
:101CF000012801D102207047012082F8A00000BF16
:101D0000022082F8A1001068406B40F008001368C0
:101D1000586310684162012082F8A10000BF0020D2
:101D200082F8A00000BF00BFE5E700000021014AE3
:101D300011707047640000242DE9F04104460E46FE
:101D4000174600BF94F8A000012802D10220BDE888
:101D5000F081012084F8A00000BF022084F8A100D7
:101D600007EB870000EBC70104F1380000EB8105A9
:101D70006E623A462946204602F0DCFC01202168CA
:101D8000486284F8A10000BF002084F8A00000BFD2
:101D900000BFDCE74178154A11600178F9B1121DE6
:101DA00041681160017B0907C27A41EA0261827AC7
:101DB00041EAC241427B41EA8241827B41EA42419F
:101DC000C27B41EA0241427A41EA0221027A41EAB7
:101DD000420102781143054A0832116005E00021F2
:101DE000024A121D1160121D1160704798ED00E04B
:101DF00000BF00BF00BFBFF35F8F00BF00BF00BFC9
:101E00000548006820F4803003490860002002493A
:101E1000703108607047000024ED00E040F00101DF
:101E20000D4A11600C497039096841F480310A4A41
:101E3000703A116000BF00BF00BFBFF34F8F00BFFB
:101E400000BF00BF00BF00BF00BFBFF36F8F00BF68
:101E500000BF00BF7047000094ED00E07047000035
:101E600070B504460E4615460CB9012070BD94F8B5
:101E7000210028B9002084F82000204600F022F834
:101E8000211D2068FEF7CAFE3146D4E90002FEF7A4
:101E9000B4FE2946D4E90002FEF79FFE20680068E0
:101EA00040F00400216808600548006840F00040E8
:101EB00003490860012084F821000020D6E70000D3
:101EC0000040005210B586B0044600BF314800689B
:101ED00040F480502F4908600846006800F48050A4
:101EE000009000BF00BF00BF2A480C30006840F0DF
:101EF000080028490C3108600846006800F0080016
:101F0000009000BF00BF00BF0846006840F010000E
:101F100008600846006800F01000009000BF00BF95
:101F200000BF0846006840F04000086008460068AE
:101F300000F04000009000BF00BF40200190002052
:101F40000290012003900320049001A91248FFF79A
:101F500061FB4FF40070019002200290002003907A
:101F6000032004900C20059001A90C48FFF752FBB8
:101F70004DF6330001900020039001A90648FFF7B9
:101F800049FB4FF4F060019001A90548FFF742FBBF
:101F900006B010BDD4440258000C02580018025874
:101FA000001002580146084600280DDB00BF00BFA4
:101FB00000F01F0301229A4043099B0003F1E02334
:101FC000C3F8002100BF00BF00BF70472DE9F05FDC
:101FD00080460D46164603F059FE074639462A4606
:101FE000334601F00700C0F1070ABAF1040F02D925
:101FF0004FF0040A01E0C0F1070AD14600F1040ADB
:10200000BAF1070F02D24FF0000A01E0A0F1030A73
:10201000D4464FF0010A0AFA09FAAAF1010A0AEABB
:10202000020A0AFA0CFA4FF0010B0BFA0CFBABF1A7
:10203000010B0BEA030B4AEA0B042146404603F06E
:102040002DFEBDE8F09F000000BF00F00702064B28
:1020500019684FF6FF031940044B0B4343EA022172
:10206000014B196000BF70470CED00E00000FA055D
:102070000348006840F08070014908607047000024
:102080000C48025810B501F081F905490968C1F3FF
:102090000211044A515C01F01F01C84010BD00004C
:1020A000204402582CD8040870B50146844D2D6890
:1020B00005F00303824D2D68C5F30530804D2D1DBD
:1020C0002D68C5F300147E4D14352D68C5F3CC057D
:1020D00015FB04F501EE105AB8EE411AF0EE410A74
:1020E00000286FD023B1012B4ED0022B6BD16BE0B7
:1020F000734D283D2D68C5F340153DB3704D283D07
:102100002D68C5F3C1066F4D25FA06F201EE102ABF
:10211000F8EE411A01EE100AB8EE411A81EE812A5A
:102120009FED691AC0EE811A654D10352D68C5F313
:10213000080501EE105AB8EE411A31EE811AF7EE99
:10214000001A31EE211A22EE010A1CE001EE100AFB
:10215000B8EE411ADFED5D1A81EE812A9FED5A1A21
:10216000C0EE811A564D10352D68C5F3080501EEF5
:10217000105AB8EE411A31EE811AF7EE001A31EE1C
:10218000211A22EE010A5BE001EE100AB8EE411AB4
:10219000DFED4F1A81EE812A9FED4B1AC0EE811AB6
:1021A000474D10352D68C5F3080501EE105AB8EEFD
:1021B000411A31EE811AF7EE001A31EE211A22EEA1
:1021C000010A3DE077E01DE001EE100AB8EE411A89
:1021D0009FED402AC2EE011A9FED3B1A80EE812A44
:1021E000374D10352D68C5F3080501EE105AB8EECD
:1021F000411A32EE011AB7EE002A31EE021A21EE30
:10220000810A1DE001EE100AB8EE411ADFED301A26
:1022100081EE812A9FED2C1AC0EE811A284D1035CF
:102220002D68C5F3080501EE105AB8EE411A31EEDB
:10223000811AF7EE001A31EE211A22EE010A00BFD0
:1022400000BF1F4D10352D68C5F3462501EE105A0D
:10225000B8EE411AF7EE001A31EE211AC0EE011A5B
:10226000BCEEE11A81ED001A154D10352D68C5F34D
:10227000064501EE105AB8EE411AF7EE001A31EE9B
:10228000211AC0EE011ABCEEE11A81ED011A0C4DC3
:1022900010352D68C5F3066501EE105AB8EE411AE7
:1022A000F7EE001A31EE211AC0EE011ABCEEE11A67
:1022B00081ED021A03E000250D604D608D6070BD58
:1022C000284402580090D003000000460024744CBB
:1022D0000024744A20BCBE4B70B50146844D2D6865
:1022E00005F00303824D2D68C5F30550804D2D1D6B
:1022F0002D68C5F300247E4D1C352D68C5F3CC0533
:1023000015FB04F501EE105AB8EE411AF0EE410A41
:1023100000286FD023B1012B4ED0022B6BD16BE084
:10232000734D283D2D68C5F340153DB3704D283DD4
:102330002D68C5F3C1066F4D25FA06F201EE102A8D
:10234000F8EE411A01EE100AB8EE411A81EE812A28
:102350009FED691AC0EE811A654D18352D68C5F3D9
:10236000080501EE105AB8EE411A31EE811AF7EE67
:10237000001A31EE211A22EE010A1CE001EE100AC9
:10238000B8EE411ADFED5D1A81EE812A9FED5A1AEF
:10239000C0EE811A564D18352D68C5F3080501EEBB
:1023A000105AB8EE411A31EE811AF7EE001A31EEEA
:1023B000211A22EE010A5BE001EE100AB8EE411A82
:1023C000DFED4F1A81EE812A9FED4B1AC0EE811A84
:1023D000474D18352D68C5F3080501EE105AB8EEC3
:1023E000411A31EE811AF7EE001A31EE211A22EE6F
:1023F000010A3DE077E01DE001EE100AB8EE411A57
:102400009FED402AC2EE011A9FED3B1A80EE812A11
:10241000374D18352D68C5F3080501EE105AB8EE92
:10242000411A32EE011AB7EE002A31EE021A21EEFD
:10243000810A1DE001EE100AB8EE411ADFED301AF4
:1024400081EE812A9FED2C1AC0EE811A284D183595
:102450002D68C5F3080501EE105AB8EE411A31EEA9
:10246000811AF7EE001A31EE211A22EE010A00BF9E
:1024700000BF1F4D18352D68C5F3462501EE105AD3
:10248000B8EE411AF7EE001A31EE211AC0EE011A29
:10249000BCEEE11A81ED001A154D18352D68C5F313
:1024A000064501EE105AB8EE411AF7EE001A31EE69
:1024B000211AC0EE011ABCEEE11A81ED011A0C4D91
:1024C00018352D68C5F3066501EE105AB8EE411AAD
:1024D000F7EE001A31EE211AC0EE011ABCEEE11A35
:1024E00081ED021A03E000250D604D608D6070BD26
:1024F000284402580090D003000000460024744C89
:102500000024744A20BCBE4B2DE9F041044600254E
:10251000A846206800F00060B0F1006F30D1606E16
:1025200048B1B0F5801F0DD0B0F5001F10D0B0F548
:10253000401F15D113E0F948006840F40030F74916
:1025400008600FE00221201D02F000FA054609E0B4
:10255000022104F1240002F0ABFA054602E001E09A
:10256000012500BF00BF55B9EC482430006820F4B5
:102570004010616E0843E9492431086000E0A84634
:10258000208800F48070B0F5807F2DD1606D052823
:102590001AD2DFE800F0030A10171800DF480068BD
:1025A00040F40030DD49086010E00021201D02F0F9
:1025B000CDF905460AE0002104F1240002F078FA82
:1025C000054603E002E001E0012500BF00BF55B968
:1025D000D2482430006820F00700616D0843CF49DD
:1025E0002431086000E0A846208800F40070B0F5AF
:1025F000007F33D1A06D802817D003DC40B1402884
:102600001CD10CE0C02817D0B0F5807F16D114E0A3
:10261000C248006840F40030C049086010E0002162
:10262000201D02F093F905460AE0002104F1240080
:1026300002F03EFA054603E002E001E0012500BF9A
:1026400000BF55B9B5482430006820F4E070A16D92
:102650000843B2492431086000E0A846208800F40D
:102660008060B0F5806F38D1D4F8A400B0F5800F49
:1026700019D004DC50B1B0F5001F1DD10DE0B0F54C
:10268000C00F17D0B0F5000F16D114E0A3480068B2
:1026900040F40030A149086010E00021201D02F044
:1026A00055F905460AE0002104F1240002F000FA81
:1026B000054603E002E001E0012500BF00BF5DB96F
:1026C00096482C30006820F46000D4F8A410084329
:1026D00092492C31086000E0A846208800F4006090
:1026E000B0F5006F38D1D4F8A800B0F1007F19D050
:1026F00004DC50B1B0F1807F1DD10DE0B0F1407F1E
:1027000017D0B0F1806F16D114E08448006840F40F
:1027100000308249086010E00021201D02F016F907
:1027200005460AE0002104F1240002F0C1F9054643
:1027300003E002E001E0012500BF00BF5DB977487A
:102740002C30006820F0E060D4F8A81008437349EA
:102750002C31086000E0A846206800F00070B0F15D
:10276000007F27D1A06CA0B1102804D0202809D068
:1027700030280FD10CE06948006840F40030674908
:10278000086009E00221201D02F0E0F8054603E0A0
:1027900002E001E0012500BF00BF55B95F482030CD
:1027A000006820F03000A16C08435C4920310860CB
:1027B00000E0A846208800F48050B0F5805F36D154
:1027C000E06DB0F5005F19D004DC50B1B0F5805F6A
:1027D0001DD10DE0B0F5405F17D0B0F5804F16D198
:1027E00014E04E48006840F400304C49086010E0A6
:1027F0000021201D02F0AAF805460AE0002104F19C
:10280000240002F055F9054603E002E001E001254D
:1028100000BF00BF55B941482430006820F4E040B3
:10282000E16D08433D492431086000E0A846208856
:1028300000F40050B0F5005F34D1206EB0F5403F99
:102840001DD007DC68B1B0F5803F0BD0B0F5003F7C
:1028500018D10DE0B0F5802F12D0B0F5A02F11D116
:102860000FE011E00121201D02F070F805460BE099
:10287000012104F1240002F01BF9054604E003E005
:1028800002E001E0012500BF00BF55B92348243014
:10289000006820F4E020216E0843204924310860BC
:1028A00000E0A846208800F48040B0F5804F38D181
:1028B000D4F8AC00B0F1405F1DD007DC68B1B0F1D6
:1028C000805F0BD0B0F1005F18D10DE0B0F1804F08
:1028D00012D0B0F1A04F11D10FE011E00121201D65
:1028E00002F034F805460BE0012104F1240002F067
:1028F000DFF8054604E003E002E001E0012500BF47
:1029000000BF6DB905482C30006820F0E040D4F8D5
:10291000AC10084301492C31086002E02C440258F5
:10292000A846208800F40040B0F5004F26D1E06EA4
:1029300098B1B0F1805F03D0B0F1005F0ED106E036
:10294000F948006840F40030F749086008E00121C8
:10295000201D01F0FBFF054602E001E0012500BF5C
:1029600000BF55B9F0482430006820F04050E16EB7
:102970000843ED492431086000E0A846206800F0D3
:102980008070B0F1807F27D1606CA0B1012804D0A5
:10299000022809D003280FD10CE0E348006840F476
:1029A0000030E149086009E00221201D01F0CEFF5E
:1029B000054603E002E001E0012500BF00BF55B974
:1029C000D9482030006820F00300616C0843D649E4
:1029D0002031086000E0A846206800F48000B0F5CF
:1029E000800F7DD1D148006840F48070CF490860E5
:1029F000FEF72CFF064606E0FEF728FF801B642842
:102A000001D9032505E0C948006800F4807000285A
:102A1000F2D000BF85BBC4484430006800F4407069
:102A2000B4F8B01001F44071884213D0BE4844306D
:102A3000006820F44077BC484430006840F480309F
:102A4000B949443108600846006820F480300860C5
:102A500008460760D4F8B000B0F5807F15D1FEF7C6
:102A6000F5FE064609E0FEF7F1FE801B41F28831D3
:102A7000884202D9032507E038E0AB4844300068BB
:102A8000C0F340000028EED000BF55BB00BFB4F833
:102A9000B00000F44070B0F5407F0ED1A2481C3861
:102AA000006820F47C51A24AD4F8B000104041EAFA
:102AB00010109D491C39086007E09B481C380068CD
:102AC00020F47C5098491C390860974844300068CD
:102AD000B4F8B010C1F30B0108439349443101E04D
:102AE00005E001E0086002E0A84600E0A846207882
:102AF00000F0010068B3A06F182819D005DC48B1B8
:102B0000082808D0102816D10BE0202811D028283A
:102B100011D10FE011E00121201D01F017FF054642
:102B20000BE0012104F1240001F0C2FF054604E09E
:102B300003E002E001E0012500BF00BF55B97A487B
:102B40002830006820F03800A16F0843764928310A
:102B5000086000E0A846207800F00200022828D192
:102B6000606F062815D2DFE800F003040A11121383
:102B700011E00121201D01F0E9FE05460BE00121D5
:102B800004F1240001F094FF054604E003E002E0B4
:102B900001E0012500BF00BF55B963482830006837
:102BA00020F00700616F08435F492831086000E0AA
:102BB000A846207800F0040004282AD1D4F8900018
:102BC000062815D2DFE800F003040A11121311E001
:102BD0000121201D01F0BAFE05460BE0012104F1A0
:102BE000240001F065FF054604E003E002E001E097
:102BF000012500BF00BF5DB94B482C30006820F0B4
:102C00000700D4F89010084347492C31086000E0D1
:102C1000A846207800F02000202836D1D4F88C0077
:102C2000B0F1405F1DD007DC68B1B0F1805F0BD020
:102C3000B0F1005F18D10DE0B0F1804F12D0B0F1CB
:102C4000A04F11D10FE011E00021201D01F07EFE08
:102C500005460BE0022104F1240001F029FF05469E
:102C600004E003E002E001E0012500BF00BF5DB920
:102C70002D482830006820F0E040D4F88C1008433C
:102C800029492831086000E0A846207800F040007B
:102C9000402836D1D4F89800B0F5406F1DD007DC3D
:102CA00068B1B0F5806F0BD0B0F5006F18D10DE0B2
:102CB000B0F5805F12D0B0F5A05F11D10FE011E048
:102CC0000021201D01F042FE05460BE0022104F127
:102CD000240001F0EDFE054604E003E002E001E01F
:102CE000012500BF00BF5DB90F482C30006820F4FB
:102CF000E050D4F8981008430B492C31086000E0EC
:102D0000A846207800F0800080283AD1D4F89C00B2
:102D1000B0F5C04F23D00DDC98B1B0F5005F11D0F5
:102D2000B0F5804F1ED113E02C44025800480258E1
:102D3000FFFCFF0FB0F5004F12D0B0F5204F11D1BE
:102D40000FE011E00021201D01F000FE05460BE020
:102D5000022104F1240001F0ABFE054604E003E08B
:102D600002E001E0012500BF00BF4DB9BE48006888
:102D700020F46040D4F89C100843BB49086000E090
:102D8000A846207800F00800082817D1D4F8800061
:102D9000B0F5805F07D1022104F1240001F088FE24
:102DA00008B14FF00108B048001F006820F44050FF
:102DB000D4F880100843AC49091F0860207800F05F
:102DC0001000102815D1D4F89400B0F5807F07D1F9
:102DD000022104F1240001F06BFE08B14FF001085C
:102DE000A148006820F44070D4F8941008439E492C
:102DF0000860206800F40020B0F5002F26D1D4F838
:102E0000A00030B1B0F5803F09D0B0F5003F0ED141
:102E10000CE00021201D01F099FD054609E002218A
:102E200004F1240001F044FE054602E001E0012522
:102E300000BF00BF4DB98C48006820F44030D4F882
:102E4000A01008438849086000E0A846206800F404
:102E50008020B0F5802F2DD1D4F88400B0F5801FEC
:102E600006D0B0F5001F0CD0B0F5401F11D10FE017
:102E70007D482C38006840F400307B492C390860CC
:102E800009E0012104F1240001F012FE054602E0F0
:102E900001E0012500BF00BF5DB97348001F006855
:102EA00020F44010D4F8841008436F49091F0860CB
:102EB00000E0A846206800F48030B0F5803F24D1BF
:102EC000E06C18B1B0F5803F0FD108E066482C38AF
:102ED000006840F4003064492C39086007E00221A2
:102EE000201D01F033FD054601E0012500BF00BFB4
:102EF00055B95D480C38006820F48030E16C084317
:102F000059490C39086000E0A846206800F00050DC
:102F1000B0F1005F07D1022104F1240001F0C8FDE7
:102F200008B14FF00108206800F40030B0F5003F10
:102F300027D1E06FA0B1B0F5807F06D0B0F5007F5B
:102F40000CD0B0F5407F0CD109E047482C38006820
:102F500040F4003044492C39086004E003E002E00A
:102F600001E0012500BF00BF55B93F48001F0068C0
:102F700020F44070E16F08433B49091F086000E0FE
:102F8000A846206800F48010B0F5801F09D13648AB
:102F90000838006820F00040216F084332490839A2
:102FA0000860206800F08050B0F1805F0AD12E48A0
:102FB0004838006820F48040D4F8B41008432A4907
:102FC00048390860206800F40010B0F5001F09D1EE
:102FD00025480838006820F08070A16E0843224917
:102FE00008390860206800F08040B0F1804F11D1AE
:102FF00000BF1D484838006820F400401A4948398D
:10300000086008460068D4F8B810084316494839E3
:10301000086000BF206800F00040B0F1004F09D107
:1030200011480C38006820F04050216D08430E49CB
:103030000C390860206800F40000B0F5000F0AD1D8
:103040000948001F006820F44000D4F888100843A5
:103050000549091F0860B8F1000F02D10020BDE842
:10306000F0810120FBE70000584402582DE9F041AF
:1030700004460D4614B90120BDE8F081BD48006842
:1030800000F00F00A8420ED2BA48006820F00F00EE
:103090002843B84908600846006800F00F00A842BD
:1030A00001D00120E8E7207800F0040004280ED1C8
:1030B000B1492069096801F07001884207D9AE481A
:1030C000006820F0700021690843AB49086020784F
:1030D00000F00800082811D1A749091D6069096896
:1030E00001F07001884209D9A348001D006820F052
:1030F000700061690843A049091D0860207800F04C
:103100001000102811D19C49091DA069096801F41B
:10311000E061884209D99848001D006820F4E06009
:10312000A16908439449091D0860207800F0200037
:10313000202811D190490831E069096801F0700137
:10314000884209D98C480830006820F07000E16995
:103150000843894908310860207800F002000228FD
:103160000ED18549E068096801F00F01884207D94E
:103170008148006820F00F00E16808437E4908603C
:10318000207800F00100002850D07B48006820F42F
:103190007060A1680843784908606068022807D118
:1031A000754818380068C0F34040F8B9012063E75B
:1031B0006068032807D1704818380068C0F3406081
:1031C000A0B9012058E76068012807D16A4818387B
:1031D0000068C0F3002048B901204DE76648183860
:1031E0000068C0F3800008B9012045E7624808384C
:1031F000006820F00700616808435F4908390860EB
:10320000FEF724FB064608E0FEF720FB801B41F298
:103210008831884201D903202EE7574808380068D2
:1032200000F038006168B0EBC10FEDD1207800F0FC
:10323000020002280ED15049E068096801F00F0130
:10324000884207D24C48006820F00F00E16808432C
:10325000494908604748006800F00F00A8420ED9AD
:103260004448006820F00F0028434249086008469F
:10327000006800F00F00A84201D00120FCE6207891
:1032800000F0040004280ED13B492069096801F0D0
:103290007001884207D23848006820F07000216928
:1032A000084335490860207800F00800082811D14B
:1032B0003149091D6069096801F07001884209D22D
:1032C0002D48001D006820F07000616908432A49FC
:1032D000091D0860207800F01000102811D126493F
:1032E000091DA069096801F4E061884209D22248F9
:1032F000001D006820F4E060A16908431E49091D13
:103300000860207800F02000202811D11A490831E7
:10331000E069096801F07001884209D21648083056
:10332000006820F07000E169084313490831086023
:1033300000F076F810490968C1F303210F4A515C87
:1033400001F01F0120FA01F70B48006800F00F00A0
:103350001146085C00F01F0027FA00F008490860D9
:103360000848076008480068FEF7B2FA8046404601
:1033700082E6000000200052184402582CD80408AD
:1033800048000024440000245C00002410B500F034
:1033900047F80D490968C1F303210C4A515C01F05B
:1033A0001F0120FA01F40848006800F00F001146E0
:1033B000085C00F01F0024FA00F005490860054889
:1033C00004600846006810BD184402582CD8040850
:1033D000480000244400002400B5FFF7D7FF05494A
:1033E0000968C1F30211044A515C01F01F01C84091
:1033F00000BD00001C4402582CD8040800B5FFF79B
:10340000C5FF05490968C1F30221044A515C01F076
:103410001F01C84000BD00001C4402582CD80408FD
:10342000F0B5824E366806F0380636B1082E15D053
:10343000102E15D0182E7DD114E07C4E103E36682B
:10344000C6F3401646B1794E103E3668C6F3C10742
:10345000774E26FA07F000E07548E5E07548E3E0AE
:103460007548E1E0714E1836366806F003046F4E79
:1034700018363668C6F305116C4E1C36366806F0F1
:1034800001056A4E24363668C6F3CC0616FB05F6EF
:1034900001EE106AB8EE410A002971D024B1012C66
:1034A00050D0022C6DD16DE0604E103E3668C6F3F0
:1034B00040163EB35D4E103E3668C6F3C1075C4E03
:1034C00026FA07F301EE103AF8EE411A01EE101A4F
:1034D000B8EE411A81EE812A9FED581AC0EE011A0A
:1034E000524E20363668C6F3080601EE106AB8EE72
:1034F000411A31EE811AF7EE001A31EE211A62EE0E
:10350000010A1EE001EE101AB8EE411ADFED4C1A66
:1035100081EE812A9FED491AC0EE011A434E2036F2
:103520003668C6F3080601EE106AB8EE411A31EEAD
:10353000811A00E076E0F7EE001A31EE211A62EE11
:10354000010A5BE001EE101AB8EE411A9FED3D2A28
:10355000C2EE011A9FED391A80EE012A334E203651
:103560003668C6F3080601EE106AB8EE411A32EE6C
:10357000011AB7EE002A31EE021A61EE810A3DE02F
:103580004EE01DE001EE101AB8EE411ADFED2E1AE2
:1035900081EE812A9FED291AC0EE011A234E2036B2
:1035A0003668C6F3080601EE106AB8EE411A31EE2D
:1035B000811AF7EE001A31EE211A62EE010A1DE0BF
:1035C00001EE101AB8EE411A9FED1E2AC2EE011A42
:1035D0009FED1A1A80EE012A144E20363668C6F383
:1035E000080601EE106AB8EE411A32EE011AB7EE83
:1035F000002A31EE021A61EE810A00BF00BF0B4EB5
:1036000020363668C6F34626721C01EE102AB8EE44
:10361000411AC0EE811ABCEEE11A11EE100A00E068
:10362000002001E0034800BF00BFF0BD1044025875
:103630000090D00300093D0040787D010000004665
:103640000024744C0024744A20BCBE4B2DE9F04782
:10365000044614B90120BDE8F087207800F001008D
:10366000002870D0FA48006800F03808F848183090
:10367000D0F80090B8F1100F06D0B8F1180F0FD1A4
:1036800009F0030002280BD1F14810380068C0F39C
:10369000404000286AD06068002867D10120DAE73E
:1036A00000BF6068B0F5803F08D1E9481038006875
:1036B00040F48030E649103908602EE0606868B94F
:1036C000E3481038006820F48030E1491039086080
:1036D0000846006820F4802008601EE06068B0F5AD
:1036E000A02F0DD1DA481038006840F48020D84966
:1036F000103908600846006840F4803008600CE02B
:10370000D3481038006820F48030D149103908605F
:103710000846006820F48020086000BF606898B107
:10372000FEF794F8054606E0FEF790F8401B642883
:1037300001D903208FE7C64810380068C0F3404025
:103740000028F1D012E012E0FEF780F8054606E00E
:10375000FEF77CF8401B642801D903207BE7BC48B6
:1037600010380068C0F340400028F1D100BF207835
:1037700000F00200022874D1B548006800F0380853
:10378000B3481830D0F80090B8F1000F05D0B8F168
:10379000180F56D109F00300D0BBAD4810380068AF
:1037A000C0F3800018B1E06808B9012053E7A848C9
:1037B0001038006820F01900E1680843A449103966
:1037C0000860FEF743F8054606E0FEF73FF8401BA9
:1037D000022801D903203EE79D4810380068C0F355
:1037E00080000028F1D000BFFEF72AF841F2030163
:1037F00088421AD8206940280BD195480C380068B7
:1038000020F47C3040F4003091490C39086017E016
:1038100017E08F480C38006820F47C30216940EABA
:1038200001308B490C3908600AE089480C3800687F
:1038300020F0FE40217C40EA016085490C39086097
:1038400066E0E06888B382481038006820F019000C
:10385000E16808437E4910390860FDF7F7FF054627
:1038600007E056E0FDF7F2FF401B022801D90320D4
:10387000F1E6774810380068C0F380000028F1D0E6
:1038800000BFFDF7DDFF41F2030188421AD820692D
:1038900040280BD16E480C38006820F47C3040F48E
:1038A00000306B490C39086017E017E068480C38A5
:1038B000006820F47C30216940EA013064490C3909
:1038C00008600AE062480C38006820F0FE40217C65
:1038D00040EA01605E490C39086019E05C48103824
:1038E000006820F001005A4910390860FDF7AEFF6A
:1038F000054606E0FDF7AAFF401B022801D9032078
:10390000A9E6534810380068C0F380000028F1D1C0
:1039100000BF207800F0100010287CD14C480068CF
:1039200000F038084A481830D0F80090B8F1080F75
:1039300006D0B8F1180F3DD109F00300012839D1A4
:10394000434810380068C0F3002020B1E0698028A7
:1039500001D001207FE600BFFDF772FF41F20301B5
:1039600088421AD8206A20280AD139480C380068C1
:1039700020F0F84040F0804035490C39086018E0EC
:1039800033480C38006820F0F84094F8201040EAE2
:1039900081602F490C3908600BE02D48001F00683A
:1039A00020F07C5094F8201040EA01602849091F5B
:1039B000086066E0E06978B325481038006840F098
:1039C0008000234910390860FDF740FF054606E0F6
:1039D000FDF73CFF401B022801D903203BE61C48B1
:1039E00010380068C0F300200028F1D000BFFDF7B8
:1039F00027FF41F2030188421CD8206A20280CD1FD
:103A000013480C38006820F0F84040F0804010491E
:103A10000C3908601AE035E01CE00D480C380068ED
:103A200020F0F84094F8201040EA816008490C39F1
:103A300008600BE00648001F006820F07C5094F8F6
:103A4000201040EA01600249091F086019E00000E7
:103A500010440258FA48006820F08000F8490860D5
:103A6000FDF7F4FE054606E0FDF7F0FE401B0228D8
:103A700001D90320EFE5F2480068C0F300200028D8
:103A8000F2D100BF207800F00800082836D1606924
:103A9000D0B1EB487430006840F00100E84974315F
:103AA0000860FDF7D3FE054606E0FDF7CFFE401B9C
:103AB000022801D90320CEE5E14874300068C0F344
:103AC00040000028F1D019E0DD487430006820F093
:103AD0000100DB4974310860FDF7B8FE054606E0D9
:103AE000FDF7B4FE401B022801D90320B3E5D448FA
:103AF00074300068C0F340000028F1D1207800F055
:103B00002000202830D1A069B8B1CD48006840F429
:103B10008050CB490860FDF799FE054606E0FDF7A9
:103B200095FE401B022801D9032094E5C448006893
:103B3000C0F340300028F2D016E0C148006820F4FD
:103B40008050BF490860FDF781FE054606E0FDF79D
:103B50007DFE401B022801D903207CE5B84800689F
:103B6000C0F340300028F2D1207800F0040004288F
:103B70007DD1B448006840F48070B2490860FDF718
:103B800065FE054606E0FDF761FE401B642801D98D
:103B9000032060E5AB48006800F480700028F2D094
:103BA00000BFA068012808D1A5487030006840F027
:103BB0000100A349703108602DE0A06868B9A048F1
:103BC0007030006820F001009D497031086008469F
:103BD000006820F0040008601DE0A06805280DD1F1
:103BE00097487030006840F00400954970310860D3
:103BF0000846006840F0010008600CE09048703012
:103C0000006820F001008E497031086008460068A5
:103C100020F00400086000BFA068A0B1FDF716FE08
:103C2000054608E0FDF712FE401B41F2883188424C
:103C300001D903200FE5824870300068C0F34000CE
:103C40000028EFD013E0FDF701FE054608E0FDF780
:103C5000FDFD401B41F28831884201D90320FAE47E
:103C6000774870300068C0F340000028EFD1606AE8
:103C700000287DD072481030006800F03800182805
:103C800077D0606A022875D16D48006820F0807096
:103C90006B490860FDF7DAFD054606E0FDF7D6FD45
:103CA000401B022801D90320D5E465480068C0F311
:103CB00040600028F2D100BFD4E90A1041EA0010A8
:103CC0005F492831096840F2F332914308435C4967
:103CD00028310860208E401EC0F30800616B491E29
:103CE0004FF47E4202EA41210843218F491ED2014E
:103CF00002EA014108433C21095D491E120202EA21
:103D0000016108434E493031086000BF081F006858
:103D100020F00100091F08604948343000684FF660
:103D2000F8718843A16C40EAC1004549343108600C
:103D300043482C30006820F00C00216C08434049B7
:103D40002C3108600846006820F00200616C0843CE
:103D50003B492C3108600846006840F48030086018
:103D60000846006840F4003008600846006802E039
:103D70006AE038E01FE040F48020086008460068F0
:103D800040F0010008602E48006840F080702C4927
:103D90000860FDF75BFD054606E0FDF757FD401B9B
:103DA000022801D9032056E425480068C0F340608A
:103DB0000028F2D048E02248006820F080702049B6
:103DC0000860FDF743FD054606E0FDF73FFD401B9B
:103DD000022801D903203EE419480068C0F340607E
:103DE0000028F2D130E016482830076814483030F7
:103DF0000668606A012821D007F00301A06A8142A9
:103E00001CD1C7F30511E06A884217D1C6F3080137
:103E1000206B401E814211D1606B401EC6F34621CB
:103E200088420BD1A06B401EC6F30641884205D1E3
:103E3000E06B401EC6F30661884205D001200AE40B
:103E40000044025800480258002004E470B50446BB
:103E50000D460CB9012070BD94F82C0028B9002043
:103E600084F82D00204600F019F8022084F82C0078
:103E7000211D2068FCF7ECFE2946D4E90002FCF77E
:103E80003BFF0548006840F00040034908600120FE
:103E900084F82C000020DEE70040005210B586B008
:103EA000044600BF3E48006840F480503C4908602A
:103EB0000846006800F48050009000BF00BF00BFBB
:103EC00037480C30006840F0040035490C31086078
:103ED0000846006800F00400009000BF00BF00BF6B
:103EE0000846006840F0080008600846006800F0D6
:103EF0000800009000BF00BF00BF0846006840F007
:103F0000100008600846006800F01000009000BF34
:103F100000BF00BF0846006840F020000860084667
:103F2000006800F02000009000BF00BF00BF0846FE
:103F3000006840F0400008600846006800F040005B
:103F4000009000BF00BF0D200190022002900120D0
:103F50000390032004900C20059001A91148FDF75F
:103F600059FB4CF20370019001A90F48FDF752FB79
:103F70004FF68370019001A90C48FDF74BFB4FF6FB
:103F80003F00019001A90A48FDF744FB48F23710B1
:103F9000019001A90748FDF73DFB06B010BD0000E8
:103FA000D444025800080258000C0258001002586D
:103FB000001402580018025870B504460D4694F8D3
:103FC0002C00022800D170BD94F82C0001280AD1E1
:103FD000022084F82C0029462068FCF76FFE01209F
:103FE00084F82C0001E00120EDE70020EBE72DE94B
:103FF000F04104460E46174694F82C50022D02D18B
:104000000220BDE8F081012D01D0052D12D1022042
:1040100084F82C003A4631462068FCF759FE306897
:10402000022803D1052084F82C0005E0012084F843
:104030002C0001E00120E4E70020E2E770B504462F
:104040002546681EB0F1807F01D301200FE0681E75
:104050004FF0E02148610F214FF0FF3001F01EFECC
:1040600000204FF0E021886107200861002070BD2A
:104070007047704770477047704700002DE9F04760
:1040800004462068C569206806682068876840F68D
:104090000F0005EA0009B9F1000F0FD105F020006B
:1040A00060B106F0200010B907F0805030B1206FE9
:1040B00010B12046216F8847BDE8F087B9F1000FA5
:1040C0007ED0F948384018B9F84830400028F7D079
:1040D00005F0010058B106F4807040B1012021685C
:1040E0000862D4F88C0040F00100C4F88C0005F0A0
:1040F000020058B107F0010040B1022021680862B7
:10410000D4F88C0040F00400C4F88C0005F00400E2
:1041100058B107F0010040B1042021680862D4F8CA
:104120008C0040F00200C4F88C0005F0080070B16B
:1041300006F0200010B9DC48384040B10820216862
:104140000862D4F88C0040F00800C4F88C0005F434
:10415000006060B106F0806048B14FF400602168F3
:104160000862D4F88C0040F02000C4F88C00D4F829
:104170008C0000284ED005F0200050B106F0200041
:1041800010B907F0805020B1206F10B12046216F88
:104190008847D4F88CA02068806800F04000402850
:1041A00002D00AF0280070B3204600F07FFE20689D
:1041B000806800F04000402821D100BF00BF00E02F
:1041C00029E02168083151E8001F21F040002168F2
:1041D000083141E80002002AF1D100BFE06F50B180
:1041E000B348E16F0865E06FFDF73EF890B1E06F0E
:1041F000016D88470EE02046FFF73EFF0AE02046AB
:10420000FFF73AFF06E0FFE72046FFF735FF002003
:10421000C4F88C0050E7E06E012872D105F0100060
:1042200000286ED006F010000028FAD01020216877
:1042300008622068806800F0400040287ED1E06F6E
:1042400000689C49884258D0E06F0068994918314D
:10425000884252D0E06F00689649303188424CD095
:10426000E06F006893494831884246D0E06F0068AB
:1042700090496031884240D0E06F00688D497831C4
:1042800088423AD0E06F00688A499031884234D041
:10429000E06F00688749A83188422ED0E06F00683F
:1042A0008549884229D0E06F0068834918318842E7
:1042B00023D0E06F00688049303188421DD0E06F24
:1042C00000687D494831884217D0E06F00687A491C
:1042D0006031884211D0E06F0068774978318842B8
:1042E0000BD0E06F006874499031884205D0E06FD0
:1042F00000687149A831884204D1E06F00684068C5
:1043000003E0A0E0E06F006840681FFA80F8B8F1B1
:10431000000F55D0B4F85C00404551DDA4F85E8034
:10432000E06FC069B0F5807F41D000BF00BF216859
:1043300051E8001F21F48070226800E041E042E86B
:1043400000010029F3D100BF00BF00BF2168083180
:1043500051E8001F21F001002168083141E8000206
:10436000002AF3D100BF00BF00BF2168083151E827
:10437000001F21F040002168083141E80002002AB6
:10438000F3D100BF2020C4F888000020E06600BF01
:1043900000BF216851E8001F21F01000226842E8A8
:1043A00000010029F5D100BFE06FFCF7EFFCB4F885
:1043B0005C00B4F85E20801A81B22046FFF758FEF8
:1043C0007AE634F85C0F6188401A1FFA80F860883A
:1043D0005C3CB8B3B8F1000F34D000BF00BF216817
:1043E00051E8001F21F49070226842E80001002982
:1043F000F5D100BF00BF00BF2168083151E8001FA0
:10440000294AD24301EA02002168083141E800024A
:10441000002AF1D100BF2020C4F888000020E06607
:10442000206700BF00BF216851E8001F21F0100085
:10443000226842E800010029F5D100BF414620462C
:10444000FFF716FE38E605F4801050B107F480003F
:1044500038B14FF48010216808622046FFF70BFE48
:104460002AE605F0800058B106F0800010B907F484
:10447000000028B1606F10B12046616F88471BE6CD
:1044800005F0400030B106F0400018B1204600F0C1
:1044900043FD11E605F4000080B106F0804068B1EC
:1044A0002046FFF7E7FD07E60100001020010004A9
:1044B000934E0008100002401004024005F0807086
:1044C00030B106F0004018B12046FFF7D2FDF3E509
:1044D00000BFF1E510B504460CB9012010BDA0697C
:1044E00000B100E000BFD4F8840028B9002084F8AF
:1044F0008000204600F02AF82420C4F884002068B8
:10450000006820F0010021680860204600F0B6FF36
:10451000012800D1E2E7A06A10B1204600F002FCB9
:104520002068406820F490402168486020688068D6
:1045300020F02A00216888602068006840F00100AF
:1045400021680860204600F069FCC7E710B586B016
:1045500004462B492068884250D100BF00BF29483B
:10456000006840F01000274908600846006800F025
:104570001000009000BF00BF00BF00BF00BF214877
:104580001038006840F001001E49103908600846E4
:10459000006800F00100009000BF00BF00BF00BF36
:1045A00000BF0846006840F0010008600846006847
:1045B00000F00100009000BF00BF00BF4FF400708A
:1045C0000190022002900120039002200490072015
:1045D000059001A90C48FDF71DF84FF4806001908B
:1045E0000720059001A90848FDF714F82520FDF7DC
:1045F000D9FC032211462520FDF7E8FC06B010BDCA
:1046000000100140F04402580000025870B5044602
:104610000D461646D4F8880020282CD105B10EB9D5
:10462000012070BD00BF94F88000012801D1022054
:10463000F7E7012084F8800000BF0020E0660F4902
:104640002068884211D02068406800F4000060B102
:1046500000BF00BF216851E8001F41F08060226860
:1046600042E800010029F5D100BF32462946204624
:1046700001F0CAF9D5E70220D3E70000000C00588A
:1046800010B504462049206888423BD11F48008865
:1046900000F4004088BB1D48008800F4804070B1E1
:1046A0001B4800780A2803D000201849088024E01D
:1046B0001648008840F40040144908801DE0144862
:1046C00000780D2806D11148008840F480400F4939
:1046D000088012E00E4800780C490988C1F30D01EA
:1046E0000C4A505409480088401C08490880084674
:1046F0000088C72801DD00200880012204490648FF
:10470000FFF784FF10BD000000100140540000249A
:1047100056000024B40100247C020024704700BF2E
:10472000FEE7000010B50248FDF72EF910BD0000AD
:1047300054030024F0B58E880768FF68C7F30B4761
:104740003E44330406688436802707FB0266766899
:1047500006F47047066884364FF0800C0CFB026646
:1047600077600E680768FF68C7F30B473E44761C06
:104770001E43076884370CFB02777E608E890768CA
:10478000FF68C7F30A073E4433040668843680276F
:1047900007FB0266B66806F47047066884360CFBB1
:1047A0000266B7608E680768FF68C7F30A073E4471
:1047B000761C46EA0307066884360CFB0266B7607F
:1047C00006688436802707FB0266366926F00707ED
:1047D000066884360CFB026637610F69066884360A
:1047E0000CFB026637613126765C33023226765C3A
:1047F00034040E7E350606688436802707FB026681
:10480000B6690027066884360CFB0266B76191F82A
:1048100030601E43264346EA0507066884360CFBD3
:104820000266B76106688436802707FB02667669F0
:1048300026F0FF07066884360CFB026677614F6935
:10484000066884360CFB026677610668843680272A
:1048500007FB0266F66940F20777BE4307688437B4
:104860000CFB0277FE61D1E9077637430668843690
:104870000CFB0266F76106688436802707FB026638
:10488000B66A0027066884360CFB0266B7624F6A78
:10489000066884360CFB0266B7620E690EB9042303
:1048A00013E00E69012E01D103230EE00E69042EE0
:1048B00008D00E69022E05D00E69032E02D00E69B3
:1048C000072E01D1022300E00123066884368027E9
:1048D00007FB0266F66A06F0E027066884364FF0AA
:1048E000800C0CFB0266F762D1E90076F61B5E4392
:1048F000F61D0F8D5F4346EA0747066884360CFBBA
:104900000266F76206688436802707FB0266366B0C
:10491000F70AFF02066884360CFB02663763CF6A2B
:10492000066884360CFB0266376306688436D70156
:10493000F65946F00107066884364FEAC21C46F86D
:104940000C70F0BD00BFFEE700BFFEE72DE9F041AF
:1049500004460E4600275548006800F0030003286F
:1049600002D10120BDE8F08150482838006820F0CD
:1049700080604E4928390860FCF768FF054606E06C
:10498000FCF764FF401B022801D90320EAE74748EF
:1049900028380068C0F3C0600028F1D100BF434848
:1049A000006820F47C30216840EA01303F4908600B
:1049B000A088401EC0F30800A168491E4FF47E4243
:1049C00002EA41210843A189491ED20102EA0141BC
:1049D0000843217C491E120202EA0161084333495F
:1049E0001031086000BF3148001D006820F0C00091
:1049F000616908432D49091D08600846006820F0D8
:104A00002000A16908432949091D0860084600687B
:104A100020F0100008602548143000684FF6F87147
:104A20008843E16940EAC1002049143108601F4809
:104A3000001D006840F010001C49091D08602EB9D7
:104A40000846006840F40020086012E0012E08D1FA
:104A50001648001D006840F480101449091D0860C4
:104A600007E01248001D006840F400100F49091DBE
:104A700008600E482838006840F080600B492839EB
:104A80000860FCF7E3FE054606E0FCF7DFFE401B8E
:104A9000022801D9032065E7044828380068C0F3DC
:104AA000C0600028F1D038465CE700002844025876
:104AB0002DE9F04104460E4600275548006800F0F5
:104AC0000300032802D10120BDE8F08150482838B6
:104AD000006820F080504E4928390860FCF7B6FE87
:104AE000054606E0FCF7B2FE401B022801D9032070
:104AF000EAE7474828380068C0F340700028F1D141
:104B000000BF4348006820F07C70218840EA0150D3
:104B10003F490860A088401EC0F30800A168491EF4
:104B20004FF47E4202EA41210843A189491ED20185
:104B300002EA01410843217C491E120202EA016196
:104B4000084333491831086000BF3148001D006830
:104B500020F44060616908432D49091D086008463A
:104B6000006820F40070A16908432949091D086004
:104B70000846006820F48070086025481C300068F2
:104B80004FF6F8718843E16940EAC10020491C31C1
:104B900008601F48001D006840F480701C49091D12
:104BA00008602EB90846006840F48000086012E0F2
:104BB000012E08D11648001D006840F40000144979
:104BC000091D086007E01248001D006840F0807071
:104BD0000F49091D08600E482838006840F08050D1
:104BE0000B4928390860FCF731FE054606E0FCF762
:104BF0002DFE401B022801D9032065E70448283810
:104C00000068C0F340700028F1D038465CE700002F
:104C10002844025810B5FCF71FFE48F027FA012877
:104C200001D047F0BDFC10BD3448006840F470006E
:104C3000324908603248006800F00F00072806D2A9
:104C40002F48006820F00F00C01D2D4908602D4836
:104C5000006840F001002B4908600020294910310C
:104C60000860284800682849084026490860244808
:104C7000006800F00F00072806D92148006820F0DE
:104C80000F00C01D1E49086000201E491831086031
:104C9000091D0860091D08601C481A492831086070
:104CA0001B48091D08601B48091D08600020091DDC
:104CB00008601848091D08600020091D0860154893
:104CC000091D08600020091D08600E48006820F4D6
:104CD00080200C49086000200A49603108600E48B5
:104CE00000686FF30F00B0F1005F02D201200B49A2
:104CF000086043F2D2000A490860704788ED00E07E
:104D000000200052004402587FEDF6EA0002020241
:104D10000000FF01800201010010005C08810051C9
:104D20000040005290F8281001F0010139B10168EB
:104D3000496821F40031C26A11430268516090F859
:104D4000281001F00201022907D10168496821F405
:104D50008031026B11430268516090F8281001F015
:104D60000401042907D10168496821F48021426BBC
:104D700011430268516090F8281001F008010829D9
:104D800007D10168496821F40041826B1143026830
:104D9000516090F8281001F01001102907D1016826
:104DA000896821F48051C26B11430268916090F8C8
:104DB000281001F02001202907D10168896821F419
:104DC0000051026C11430268916090F8281001F0C4
:104DD0004001402913D10168496821F48011426CD7
:104DE000114302685160416CB1F5801F07D1016821
:104DF000496821F4C001826C11430268516090F847
:104E0000281001F08001802907D10168496821F448
:104E10000021C26C114302685160704738B50446E6
:104E20000020C4F88C00FCF711FD054620680068DE
:104E300000F0080008280CD16FF07E402B460022BD
:104E40004FF400110090204600F096FE08B10320B8
:104E500038BD2068006800F0040004280CD16FF011
:104E60007E402B4600224FF480010090204600F047
:104E700083FE08B10320EBE72020C4F88400C4F8C7
:104E800088000020E06600BF84F8800000BF00BFFB
:104E9000DEE770B50546AC6B0020A4F85E00A4F810
:104EA00056002046FFF7E8F870BD000000BF00BFC5
:104EB000026852E8002F22F49071036843E8001260
:104EC000002AF5D100BF00BF00BF0268083252E8D7
:104ED000002F104B02EA03010268083242E8001377
:104EE000002BF2D100BFC16E01290CD100BF00BF61
:104EF000026852E8002F22F01001036843E8001214
:104F0000002AF5D100BF2021C0F888100021C16619
:104F100001677047FEFFFFEF10B5044600BF00BFFA
:104F2000216851E8001F21F04000226842E800019A
:104F30000029F5D100BF2020C4F88400002060675C
:104F40002046FFF7EBFB10BD2DE9F0410446B4F815
:104F50006070D4F88800222857D12068406A86B251
:104F6000A56D06EA07002880A06D801CA065B4F836
:104F70005E00401EA4F85E00B4F85E0000284AD12E
:104F800000BF00BF216851E8001F21F49070226823
:104F900042E800010029F5D100BF00BF00BF216831
:104FA000083151E8001F21F001002168083141E873
:104FB0000002002AF3D100BF2020C4F8880000209E
:104FC0002067E06E01281CD10020E06600BF00BF12
:104FD000216851E8001F21F01000226842E800011A
:104FE0000029F5D100BF2068C069C0F3001010B1DE
:104FF000102021680862B4F85C102046FFF738F8EA
:1050000009E02046FFF73CFB05E02068806940F09E
:10501000080021688861BDE8F08100002DE9F84FA3
:105020000446B4F860B02068C56920680068009044
:105030002068D0F808A0D4F8880022287ED1B4F8DF
:10504000689096E02068406A1FFA80F8A76D08EA29
:105050000B003880A06D801CA065B4F85E00401E77
:10506000A4F85E002068C56905F00700B0B305F03C
:10507000010060B1009800F4807040B10120216807
:105080000862D4F88C0040F00100C4F88C0005F0F0
:10509000020058B10AF0010040B102202168086204
:1050A000D4F88C0040F00400C4F88C0005F0040033
:1050B00058B10AF0010040B1042021680862D4F818
:1050C0008C0040F00200C4F88C00D4F88C0028B1A9
:1050D0002046FEF7D1FF0020C4F88C00B4F85E0033
:1050E00068BB00BF00BF216851E8001F21F4807039
:1050F000226842E800010029F5D100BF00BF00BFCF
:105100002168083151E8001F344A01EA0200216891
:10511000083141E80002002AF2D100BF2020C4F883
:10512000880000202067E06E01281FD10020E06683
:1051300000BF00BF216851E8001F01E046E018E011
:1051400021F01000226842E800010029F2D100BFDE
:105150002068C069C0F3001010B1102021680862F7
:10516000B4F85C102046FEF783FF02E02046FFF70C
:1051700087FAB9F1000F04D005F0200000287FF471
:1051800061AFB4F85E6006B3B4F86800B04223DDE6
:1051900000BF00BF2168083151E8001F21F0805096
:1051A0002168083141E80002002AF3D100BF0C4811
:1051B000206700BF00BF216851E8001F41F02000B8
:1051C000226842E800010029F5D105E020688069E5
:1051D00040F0080021688861BDE8F88FFEFFFFEF0E
:1051E000494F000870B50446B4F86060D4F88800F0
:1051F000222857D12068406A85B2F0B22840A16DBC
:105200000870A06D401CA065B4F85E00401EA4F8B4
:105210005E00B4F85E0000284AD100BF00BF2168DC
:1052200051E8001F21F49070226842E80001002933
:10523000F5D100BF00BF00BF2168083151E8001F51
:1052400021F001002168083141E80002002AF3D171
:1052500000BF2020C4F8880000202067E06E0128ED
:105260001CD10020E06600BF00BF216851E8001F8C
:1052700021F01000226842E800010029F5D100BFAA
:105280002068C069C0F3001010B1102021680862C6
:10529000B4F85C102046FEF7EBFE09E02046FFF76D
:1052A000EFF905E02068806940F008002168886116
:1052B00070BD00002DE9F05F0446B4F860A02068DE
:1052C000C5692068D0F800B02068D0F80890D4F8FC
:1052D000880022287DD1B4F8688095E02068406A73
:1052E00087B20AF0FF003840A16D0870A06D401C25
:1052F000A065B4F85E00401EA4F85E002068C56991
:1053000005F00700A8B305F0010058B10BF4807058
:1053100040B1012021680862D4F88C0040F00100FF
:10532000C4F88C0005F0020058B109F0010040B14A
:10533000022021680862D4F88C0040F00400C4F810
:105340008C0005F0040058B109F0010040B10420C0
:1053500021680862D4F88C0040F00200C4F88C0088
:10536000D4F88C0028B12046FEF786FE0020C4F851
:105370008C00B4F85E0068BB00BF00BF216851E834
:10538000001F21F48070226842E800010029F5D155
:1053900000BF00BF00BF2168083151E8001F354A37
:1053A00001EA02002168083141E80002002AF2D136
:1053B00000BF2020C4F8880000202067E06E01288C
:1053C0001FD10020E06600BF00BF216851E8001F28
:1053D00001E046E018E021F01000226842E80001F8
:1053E0000029F2D100BF2068C069C0F3001010B1DD
:1053F000102021680862B4F85C102046FEF738FEE1
:1054000002E02046FFF73CF9B8F1000F04D005F0A8
:10541000200000287FF462AFB4F85E6006B3B4F8F1
:105420006800B04223DD00BF00BF2168083151E8A9
:10543000001F21F080502168083141E80002002A55
:10544000F3D100BF0C48206700BF00BF216851E8BE
:10545000001F41F02000226842E800010029F5D138
:1054600005E02068806940F0080021688861BDE897
:10547000F09F0000FEFFFFEFE55100082DE9F04F1F
:1054800089B0054600200890F8492868884200D174
:1054900000E000BF2969A868084369690843E96911
:1054A00040EA010828680068F149084040EA08001D
:1054B000296808602868406820F44050E96808437B
:1054C00029684860D5F81880E8492868884202D0E1
:1054D000286A40EA080828688068E649084040EAE7
:1054E0000800296888602868C06A20F00F00696A8F
:1054F00008432968C86200BFDF492868884220D174
:10550000DE48006800F03800182811D005DC48B1EA
:10551000082809D0102811D108E020280AD028280E
:105520000CD109E001240BE0042409E0082407E081
:10553000102405E0202403E0402401E0802400BF83
:10554000F8E0CF492868884219D1CC48006800F0BB
:105550000700062810D2DFE800F0030507090B0D4D
:1055600000240BE0042409E0082407E0102405E0EF
:10557000202403E0402401E0802400BFDAE0C14998
:105580002868884219D1BD48006800F00700062845
:1055900010D2DFE800F0030507090B0D00240BE033
:1055A000042409E0082407E0102405E0202403E097
:1055B000402401E0802400BFBCE0B3492868884251
:1055C00019D1AE48006800F00700062810D2DFE8C5
:1055D00000F0030507090B0D00240BE0042409E08B
:1055E000082407E0102405E0202403E0402401E023
:1055F000802400BF9EE0A5492868884219D19F48B1
:10560000006800F00700062810D2DFE800F003056C
:1056100007090B0D00240BE0042409E0082407E02F
:10562000102405E0202403E0402401E0802400BF92
:1056300080E097492868884220D19048006800F0AF
:105640003800182811D005DC48B1082809D01028E6
:1056500011D108E020280AD028280CD109E0012423
:105660000BE0042409E0082407E0102405E02024CE
:1056700003E0402401E0802400BF5BE08549286806
:10568000884219D17D48006800F00700062810D232
:10569000DFE800F0030507090B0D00240BE00424EC
:1056A00009E0082407E0102405E0202403E040245A
:1056B00001E0802400BF3DE077492868884219D185
:1056C0006E48006800F00700062810D2DFE800F0FE
:1056D000030507090B0D00240BE0042409E008244E
:1056E00007E0102405E0202403E0402401E08024AA
:1056F00000BF1FE05D49286888421AD15F48001D3D
:10570000006800F00700062810D2DFE800F003056B
:1057100007090B0D02240BE0042409E0082407E02C
:10572000102405E0202403E0402401E0802400BF91
:1057300000E0802400BF4D49286888427DD1102CAC
:105740001AD006DC022C09D0042C0BD0082C29D14D
:105750000DE0202C21D0402C24D120E0FCF792FC3D
:10576000064623E005A8FCF79FFC069E1EE002A863
:10577000FCF7B2FD039E19E0404854380068C0F3BE
:10578000401040B13D4854380068C0F3C10143485F
:1057900020FA01F600E0414E08E0414E06E04FF4E9
:1057A000004603E000260120089000BF00BF002E45
:1057B00010D03C49686A31F81000B6FBF0F968680F
:1057C00000EB4000484503D868680003484502D212
:1057D0000120089003E13349686A31F810C062463D
:1057E000002330461946FAF75EFE4FF4807300221C
:1057F0008446ACFB030B01FB03B10CFB021C696884
:105800004908034659184CEB0200CDE90010D5F8C1
:1058100004C06246002308460199FAF744FE074691
:10582000B7F5407F06D3B7F5801F03D22868C7605D
:10583000D5E002E001200890D1E0E869B0F5004F22
:105840007BD1082C39D005DC5CB1012C2CD0042C88
:105850004CD12DE0102C35D0202C42D0402C45D1FD
:1058600041E0FDF7B9FD064644E00000000C005899
:10587000F369FFCFFFF4FF110010014054440258B8
:105880000044004000480040004C004000500040F0
:105890000014014000780040007C00400090D003DC
:1058A00000093D003CD80408FDF7A8FD064621E0AC
:1058B00005A8FCF7F9FB069E1CE002A8FCF70CFD0E
:1058C000039E17E04C480068C0F3401038B14A48C6
:1058D0000068C0F3C101494820FA01F600E0474ED4
:1058E00008E0474E06E04FF4004603E000260120A2
:1058F000089000BF00BFFEB14249686A31F810004D
:10590000B6FBF0F04000696800EB5100B0FBF1F726
:10591000102F0FD3B7F5803F0CD24FF6F07007EA87
:10592000000AC7F342004AEA000A2868C0F80CA03F
:1059300055E002E00120089051E0082C1AD005DC67
:105940005CB1012C0DD0042C2DD10EE0102C16D002
:10595000202C23D0402C26D122E0FDF73DFD064629
:1059600025E0FDF74BFD064621E005A8FCF79CFB72
:10597000069E1CE002A8FCF7AFFC039E17E01E4841
:105980000068C0F3401038B11B480068C0F3C10183
:105990001A4820FA01F600E0184E08E0184E06E01A
:1059A0004FF4004603E000260120089000BF00BF2E
:1059B000AEB11449686A31F81000B6FBF0F06968BE
:1059C00000EB5100B0FBF1F7102F06D3B7F5803F85
:1059D00003D2B8B22968C86001E001200890012014
:1059E000A5F86A00A5F8680000202867686708988D
:1059F00009B0BDE8F08F0000004402580090D003C9
:105A000000093D003CD8040830B503469965A3F869
:105A10005C20A3F85E200020186700BF9868B0F5EE
:105A2000805F0AD1186920B940F2FF10A3F8600026
:105A300020E0FF20A3F860001CE0986848B91869CE
:105A400018B9FF20A3F8600014E07F20A3F86000DD
:105A500010E09868B0F1805F09D1186918B97F200B
:105A6000A3F8600006E03F20A3F8600002E00020F9
:105A7000A3F8600000BF0020C3F88C002220C3F808
:105A8000880000BF00BF1C68083454E8004F44F091
:105A900001001C68083444E80005002DF3D100BF64
:105AA000586EB0F1005F31D1B3F8680090422DDC40
:105AB0009868B0F5805F04D1186910B92A48186752
:105AC00001E02A48186700BF002083F8800000BF6B
:105AD000186960B100BF00BF1C6854E8004F44F46F
